S00F0000647331386232302E7372656311
S113000012C02CC02BC02AC029C028C056C026C08C
S113001025C024C023C022C021C020C01FC01EC0D0
S11300201DC01CC01BC011241FBECFE5D4E0DEBF21
S1130030CDBF10E0A0E6B0E0E0E7F3E002C0059039
S11300400D92A836B107D9F720E0A8E6B0E001C0C8
S11300501D92AA36B207E1F71DD188C1D1CF109203
S113006069001092680087B3866087BB80E48FBD07
S11300708BE08EBD8CE790E09BBD8ABD89B7806123
S113008089BF90B3209169009078892F90E0082E61
S1130090892F000C881F990B000C881F991F822B35
S11300A08093690090B32091690096FB882780F9BA
S11300B0822B80936900789408951F920F920FB653
S11300C00F9211242F938F939F9380916900880F2F
S11300D0880F8093690090B3209169009078892FEC
S11300E090E0082E892F000C881F990B000C881FA4
S11300F0991F822B8093690090B32091690096FB2D
S1130100882780F9822B80936900809169008F7021
S11301108B3049F4809168008F5F8093680098B3B6
S113012082E0892788BB809169008F70843049F40C
S1130130809168008F5F8093680098B384E089277A
S113014088BB809169008F70873029F080916900A5
S11301508F70883029F48091680081508093680002
S11301609F918F912F910F900FBE0F901F90189514
S1130170AD9A85E38A95F1F70000AD98089595B39B
S1130180907F95BB95B382958F70982B95BBF0DFCC
S11301900895CF93C82FAC9AF2DF8C2F8295807F7D
S11301A0EEDF8AE78A95F1F700C0CF910895CF93E7
S11301B0C82FAC98E4DF8C2F8295807FE0DF80E746
S11301C08A95F1F7CF91089581E0F1DF8FE99FE0FF
S11301D00197F1F700C00000089584B38F6384BBD6
S11301E085B3807C85BB8FE295E70197F1F700C06A
S11301F0000080E3C4DF8FE097E20197F1F700C0CD
S11302000000B6DF8FEC97E00197F1F700C0000023
S1130210AFDF8FEC97E00197F1F700C0000080E2B8
S1130220AEDF8FE097E20197F1F700C0000088E2AB
S1130230BEDF8CE0BCDF86E0BADFC6DF089582E073
S1130240B6DF8FE99FE00197F1F700C00000089541
S1130250623059F018F4613031F00895633039F0A8
S1130260643039F00895805805C0805403C0805725
S113027001C080539CDF0895CF93DF93EC01888104
S1130280882329F0219685DF89918111FCCFDF91A4
S1130290CF910895CF93DF93CDB7DEB760970FB6B4
S11302A0F894DEBF0FBECDBFDADE97DF80E690E0C4
S11302B0E3DF2FEF84E39CE0215080409040E1F79E
S11302C000C0000081DFBBDF8091690042E0BE0115
S11302D06F5F7F4F90E017D0CFDF62E080E0B8DF40
S11302E0809168004AE0BE016F5F7F4F90E00BD0C1
S11302F0C3DF2FEF89E698E1215080409040E1F779
S113030000C00000DFCFBB274A3031F4992322F428
S1130310BDE2909581959F4F01C0BB27FB015527F6
S1130320AA27880F991FAA1FA41710F0A41B83954E
S11303305051B9F7A05DAA3308F0A95DA1930097C5
S113034079F7B111B1931192CB0100C0DC01FC012A
S1130350672F71917723E1F7329704C07C916D93F5
S113036070836291AE17BF07C8F30895F894FFCF66
S10B037068616C6C6F21000050
S9030000FC
