S00E0000726F746172792E7372656375
S113000012C021C020C01FC01EC01DC04BC01BC0D9
S11300101AC019C018C017C016C015C014C013C028
S113002012C011C010C011241FBECFE5D4E0DEBF42
S1130030CDBF20E0A0E6B0E001C01D92A236B20719
S1130040E1F710D16FC1DCCF109261001092600013
S113005087B3866087BB80E48FBD8BE08EBD8CE761
S113006090E09BBD8ABD89B7806189BF90B3209120
S113007061009078892F90E0082E892F000C881F4A
S1130080990B000C881F991F822B8093610090B3F9
S11300902091610096FB882780F9822B8093610070
S11300A0789408951F920F920FB60F9211242F93F4
S11300B08F939F9380916100880F880F80936100D4
S11300C090B3209161009078892F90E0082E892FB9
S11300D0000C881F990B000C881F991F822B80939A
S11300E0610090B32091610096FB882780F9822BF0
S11300F080936100809161008F708B3029F0809132
S113010061008F70843029F4809160008F5F809348
S11301106000809161008F70873029F080916100C8
S11301208F70883029F48091600081508093600042
S11301309F918F912F910F900FBE0F901F90189544
S1130140AD9A85E38A95F1F70000AD98089595B3CB
S1130150907F95BB95B382958F70982B95BBF0DFFC
S11301600895CF93C82FAC9AF2DF8C2F8295807FAD
S1130170EEDF8AE78A95F1F700C0CF910895CF9317
S1130180C82FAC98E4DF8C2F8295807FE0DF80E776
S11301908A95F1F7CF91089581E0F1DF8FE99FE02F
S11301A00197F1F700C00000089584B38F6384BB06
S11301B085B3807C85BB8FE295E70197F1F700C09A
S11301C0000080E3C4DF8FE097E20197F1F700C0FD
S11301D00000B6DF8FEC97E00197F1F700C0000054
S11301E0AFDF8FEC97E00197F1F700C0000080E2E9
S11301F0AEDF8FE097E20197F1F700C0000088E2DC
S1130200BEDF8CE0BCDF86E0BADFC6DF089582E0A3
S1130210B6DF8FE99FE00197F1F700C00000089571
S1130220623059F018F4613031F00895633039F0D8
S1130230643039F00895805805C0805403C0805755
S113024001C080539CDF0895CF93DF93EC01888134
S1130250882329F0219685DF89918111FCCFDF91D4
S1130260CF910895CF93DF93CDB7DEB760970FB6E4
S1130270F894DEBF0FBECDBFE7DE97DF8DDFC7DFAB
S11302808091610042E0BE016F5F7F4F90E017D024
S1130290DBDF62E080E0C4DF809160004AE0BE0101
S11302A06F5F7F4F90E00BD0CFDF2FEF89E698E1AF
S11302B0215080409040E1F700C00000DFCFBB2711
S11302C04A3031F4992322F4BDE2909581959F4FF1
S11302D001C0BB27FB015527AA27880F991FAA1F16
S11302E0A41710F0A41B83955051B9F7A05DAA334D
S11302F008F0A95DA193009779F7B111B193119218
S1130300CB0100C0DC01FC01672F71917723E1F779
S1130310329704C07C916D9370836291AE17BF07CE
S10B0320C8F30895F894FFCF1F
S9030000FC
